{
  "_format": "hh-sol-artifact-1",
  "contractName": "Faucet",
  "sourceName": "contracts/Faucet.sol",
  "abi": [
    {
      "inputs": [
        {
          "internalType": "address",
          "name": "_tokenContract",
          "type": "address"
        },
        {
          "internalType": "uint256",
          "name": "_tokenAmount",
          "type": "uint256"
        },
        {
          "internalType": "uint256",
          "name": "_maticAmount",
          "type": "uint256"
        }
      ],
      "stateMutability": "nonpayable",
      "type": "constructor"
    },
    {
      "anonymous": false,
      "inputs": [
        {
          "indexed": true,
          "internalType": "address",
          "name": "previousOwner",
          "type": "address"
        },
        {
          "indexed": true,
          "internalType": "address",
          "name": "newOwner",
          "type": "address"
        }
      ],
      "name": "OwnershipTransferred",
      "type": "event"
    },
    {
      "inputs": [
        {
          "internalType": "address payable",
          "name": "recipient",
          "type": "address"
        }
      ],
      "name": "claim",
      "outputs": [],
      "stateMutability": "payable",
      "type": "function"
    },
    {
      "inputs": [
        {
          "internalType": "address",
          "name": "",
          "type": "address"
        }
      ],
      "name": "claimedAddresses",
      "outputs": [
        {
          "internalType": "uint256",
          "name": "",
          "type": "uint256"
        }
      ],
      "stateMutability": "view",
      "type": "function"
    },
    {
      "inputs": [
        {
          "internalType": "uint256",
          "name": "_amount",
          "type": "uint256"
        }
      ],
      "name": "depositToken",
      "outputs": [],
      "stateMutability": "nonpayable",
      "type": "function"
    },
    {
      "inputs": [],
      "name": "getMATICBalance",
      "outputs": [
        {
          "internalType": "uint256",
          "name": "",
          "type": "uint256"
        }
      ],
      "stateMutability": "view",
      "type": "function"
    },
    {
      "inputs": [],
      "name": "getTokenBalance",
      "outputs": [
        {
          "internalType": "uint256",
          "name": "",
          "type": "uint256"
        }
      ],
      "stateMutability": "view",
      "type": "function"
    },
    {
      "inputs": [],
      "name": "maticAmount",
      "outputs": [
        {
          "internalType": "uint256",
          "name": "",
          "type": "uint256"
        }
      ],
      "stateMutability": "view",
      "type": "function"
    },
    {
      "inputs": [],
      "name": "owner",
      "outputs": [
        {
          "internalType": "address",
          "name": "",
          "type": "address"
        }
      ],
      "stateMutability": "view",
      "type": "function"
    },
    {
      "inputs": [],
      "name": "renounceOwnership",
      "outputs": [],
      "stateMutability": "nonpayable",
      "type": "function"
    },
    {
      "inputs": [
        {
          "internalType": "uint256",
          "name": "_amount",
          "type": "uint256"
        }
      ],
      "name": "setMATICAmount",
      "outputs": [],
      "stateMutability": "nonpayable",
      "type": "function"
    },
    {
      "inputs": [
        {
          "internalType": "uint256",
          "name": "_amount",
          "type": "uint256"
        }
      ],
      "name": "setTokenAmount",
      "outputs": [],
      "stateMutability": "nonpayable",
      "type": "function"
    },
    {
      "inputs": [],
      "name": "tokenAmount",
      "outputs": [
        {
          "internalType": "uint256",
          "name": "",
          "type": "uint256"
        }
      ],
      "stateMutability": "view",
      "type": "function"
    },
    {
      "inputs": [
        {
          "internalType": "address",
          "name": "newOwner",
          "type": "address"
        }
      ],
      "name": "transferOwnership",
      "outputs": [],
      "stateMutability": "nonpayable",
      "type": "function"
    },
    {
      "inputs": [],
      "name": "withdrawAll",
      "outputs": [],
      "stateMutability": "payable",
      "type": "function"
    },
    {
      "stateMutability": "payable",
      "type": "receive"
    }
  ],
  "bytecode": "0x60a06040523480156200001157600080fd5b50604051620012d4380380620012d483398181016040528101906200003791906200019f565b620000576200004b620000a560201b60201c565b620000ad60201b60201c565b80600181905550816002819055508273ffffffffffffffffffffffffffffffffffffffff1660808173ffffffffffffffffffffffffffffffffffffffff1660601b8152505050505062000267565b600033905090565b60008060009054906101000a900473ffffffffffffffffffffffffffffffffffffffff169050816000806101000a81548173ffffffffffffffffffffffffffffffffffffffff021916908373ffffffffffffffffffffffffffffffffffffffff1602179055508173ffffffffffffffffffffffffffffffffffffffff168173ffffffffffffffffffffffffffffffffffffffff167f8be0079c531659141344cd1fd0a4f28419497f9722a3daafe3b4186f6b6457e060405160405180910390a35050565b600081519050620001828162000233565b92915050565b60008151905062000199816200024d565b92915050565b600080600060608486031215620001b557600080fd5b6000620001c58682870162000171565b9350506020620001d88682870162000188565b9250506040620001eb8682870162000188565b9150509250925092565b6000620002028262000209565b9050919050565b600073ffffffffffffffffffffffffffffffffffffffff82169050919050565b6000819050919050565b6200023e81620001f5565b81146200024a57600080fd5b50565b620002588162000229565b81146200026457600080fd5b50565b60805160601c6110396200029b6000396000818161051d015281816106210152818161075e015261089401526110396000f3fe6080604052600436106100c65760003560e01c8063715018a61161007f5780638da5cb5b116100595780638da5cb5b1461020b578063eec7faa114610236578063f1429a9614610261578063f2fde38b1461029e576100cd565b8063715018a6146101bf57806382b2e257146101d6578063853828b614610201576100cd565b8063010cf180146100d25780630749469f146100fb57806310935b06146101245780631e83409a1461014f57806332a572ee1461016b5780636215be7714610196576100cd565b366100cd57005b600080fd5b3480156100de57600080fd5b506100f960048036038101906100f49190610c87565b6102c7565b005b34801561010757600080fd5b50610122600480360381019061011d9190610c87565b61034d565b005b34801561013057600080fd5b506101396103d3565b6040516101469190610e4a565b60405180910390f35b61016960048036038101906101649190610c35565b6103d9565b005b34801561017757600080fd5b50610180610617565b60405161018d9190610e4a565b60405180910390f35b3480156101a257600080fd5b506101bd60048036038101906101b89190610c87565b61061f565b005b3480156101cb57600080fd5b506101d46106d2565b005b3480156101e257600080fd5b506101eb61075a565b6040516101f89190610e4a565b60405180910390f35b61020961080a565b005b34801561021757600080fd5b50610220610998565b60405161022d9190610d6f565b60405180910390f35b34801561024257600080fd5b5061024b6109c1565b6040516102589190610e4a565b60405180910390f35b34801561026d57600080fd5b5061028860048036038101906102839190610c0c565b6109c7565b6040516102959190610e4a565b60405180910390f35b3480156102aa57600080fd5b506102c560048036038101906102c09190610c0c565b6109df565b005b6102cf610ad7565b73ffffffffffffffffffffffffffffffffffffffff166102ed610998565b73ffffffffffffffffffffffffffffffffffffffff1614610343576040517f08c379a000000000000000000000000000000000000000000000000000000000815260040161033a90610e0a565b60405180910390fd5b8060018190555050565b610355610ad7565b73ffffffffffffffffffffffffffffffffffffffff16610373610998565b73ffffffffffffffffffffffffffffffffffffffff16146103c9576040517f08c379a00000000000000000000000000000000000000000000000000000000081526004016103c090610e0a565b60405180910390fd5b8060028190555050565b60015481565b6103e1610ad7565b73ffffffffffffffffffffffffffffffffffffffff166103ff610998565b73ffffffffffffffffffffffffffffffffffffffff1614610455576040517f08c379a000000000000000000000000000000000000000000000000000000000815260040161044c90610e0a565b60405180910390fd5b6000600360008373ffffffffffffffffffffffffffffffffffffffff1673ffffffffffffffffffffffffffffffffffffffff16815260200190815260200160002054146104d7576040517f08c379a00000000000000000000000000000000000000000000000000000000081526004016104ce90610e2a565b60405180910390fd5b42600360003373ffffffffffffffffffffffffffffffffffffffff1673ffffffffffffffffffffffffffffffffffffffff168152602001908152602001600020819055507f000000000000000000000000000000000000000000000000000000000000000073ffffffffffffffffffffffffffffffffffffffff1663a9059cbb826002546040518363ffffffff1660e01b8152600401610578929190610d8a565b602060405180830381600087803b15801561059257600080fd5b505af11580156105a6573d6000803e3d6000fd5b505050506040513d601f19601f820116820180604052508101906105ca9190610c5e565b508073ffffffffffffffffffffffffffffffffffffffff166108fc6001549081150290604051600060405180830381858888f19350505050158015610613573d6000803e3d6000fd5b5050565b600047905090565b7f000000000000000000000000000000000000000000000000000000000000000073ffffffffffffffffffffffffffffffffffffffff166323b872dd3330846040518463ffffffff1660e01b815260040161067c93929190610db3565b602060405180830381600087803b15801561069657600080fd5b505af11580156106aa573d6000803e3d6000fd5b505050506040513d601f19601f820116820180604052508101906106ce9190610c5e565b5050565b6106da610ad7565b73ffffffffffffffffffffffffffffffffffffffff166106f8610998565b73ffffffffffffffffffffffffffffffffffffffff161461074e576040517f08c379a000000000000000000000000000000000000000000000000000000000815260040161074590610e0a565b60405180910390fd5b6107586000610adf565b565b60007f000000000000000000000000000000000000000000000000000000000000000073ffffffffffffffffffffffffffffffffffffffff166370a08231306040518263ffffffff1660e01b81526004016107b59190610d6f565b60206040518083038186803b1580156107cd57600080fd5b505afa1580156107e1573d6000803e3d6000fd5b505050506040513d601f19601f820116820180604052508101906108059190610cb0565b905090565b610812610ad7565b73ffffffffffffffffffffffffffffffffffffffff16610830610998565b73ffffffffffffffffffffffffffffffffffffffff1614610886576040517f08c379a000000000000000000000000000000000000000000000000000000000815260040161087d90610e0a565b60405180910390fd5b6000610890610998565b90507f000000000000000000000000000000000000000000000000000000000000000073ffffffffffffffffffffffffffffffffffffffff1663a9059cbb826108d761075a565b6040518363ffffffff1660e01b81526004016108f4929190610d8a565b602060405180830381600087803b15801561090e57600080fd5b505af1158015610922573d6000803e3d6000fd5b505050506040513d601f19601f820116820180604052508101906109469190610c5e565b508073ffffffffffffffffffffffffffffffffffffffff166108fc610969610617565b9081150290604051600060405180830381858888f19350505050158015610994573d6000803e3d6000fd5b5050565b60008060009054906101000a900473ffffffffffffffffffffffffffffffffffffffff16905090565b60025481565b60036020528060005260406000206000915090505481565b6109e7610ad7565b73ffffffffffffffffffffffffffffffffffffffff16610a05610998565b73ffffffffffffffffffffffffffffffffffffffff1614610a5b576040517f08c379a0000000000000000000000000000000000000000000000000000000008152600401610a5290610e0a565b60405180910390fd5b600073ffffffffffffffffffffffffffffffffffffffff168173ffffffffffffffffffffffffffffffffffffffff161415610acb576040517f08c379a0000000000000000000000000000000000000000000000000000000008152600401610ac290610dea565b60405180910390fd5b610ad481610adf565b50565b600033905090565b60008060009054906101000a900473ffffffffffffffffffffffffffffffffffffffff169050816000806101000a81548173ffffffffffffffffffffffffffffffffffffffff021916908373ffffffffffffffffffffffffffffffffffffffff1602179055508173ffffffffffffffffffffffffffffffffffffffff168173ffffffffffffffffffffffffffffffffffffffff167f8be0079c531659141344cd1fd0a4f28419497f9722a3daafe3b4186f6b6457e060405160405180910390a35050565b600081359050610bb281610fa7565b92915050565b600081359050610bc781610fbe565b92915050565b600081519050610bdc81610fd5565b92915050565b600081359050610bf181610fec565b92915050565b600081519050610c0681610fec565b92915050565b600060208284031215610c1e57600080fd5b6000610c2c84828501610ba3565b91505092915050565b600060208284031215610c4757600080fd5b6000610c5584828501610bb8565b91505092915050565b600060208284031215610c7057600080fd5b6000610c7e84828501610bcd565b91505092915050565b600060208284031215610c9957600080fd5b6000610ca784828501610be2565b91505092915050565b600060208284031215610cc257600080fd5b6000610cd084828501610bf7565b91505092915050565b610ce281610ed0565b82525050565b610cf181610e76565b82525050565b6000610d04602683610e65565b9150610d0f82610f06565b604082019050919050565b6000610d27602083610e65565b9150610d3282610f55565b602082019050919050565b6000610d4a601783610e65565b9150610d5582610f7e565b602082019050919050565b610d6981610ec6565b82525050565b6000602082019050610d846000830184610ce8565b92915050565b6000604082019050610d9f6000830185610cd9565b610dac6020830184610d60565b9392505050565b6000606082019050610dc86000830186610ce8565b610dd56020830185610ce8565b610de26040830184610d60565b949350505050565b60006020820190508181036000830152610e0381610cf7565b9050919050565b60006020820190508181036000830152610e2381610d1a565b9050919050565b60006020820190508181036000830152610e4381610d3d565b9050919050565b6000602082019050610e5f6000830184610d60565b92915050565b600082825260208201905092915050565b6000610e8182610ea6565b9050919050565b6000610e9382610ea6565b9050919050565b60008115159050919050565b600073ffffffffffffffffffffffffffffffffffffffff82169050919050565b6000819050919050565b6000610edb82610ee2565b9050919050565b6000610eed82610ef4565b9050919050565b6000610eff82610ea6565b9050919050565b7f4f776e61626c653a206e6577206f776e657220697320746865207a65726f206160008201527f6464726573730000000000000000000000000000000000000000000000000000602082015250565b7f4f776e61626c653a2063616c6c6572206973206e6f7420746865206f776e6572600082015250565b7f4164647265737320616c726561647920636c61696d6564000000000000000000600082015250565b610fb081610e76565b8114610fbb57600080fd5b50565b610fc781610e88565b8114610fd257600080fd5b50565b610fde81610e9a565b8114610fe957600080fd5b50565b610ff581610ec6565b811461100057600080fd5b5056fea2646970667358221220eddc7177cb0776d2ae13a9504ca124d09c1614e590a8ab8b0119c5d6ef2301b664736f6c63430008040033",
  "linkReferences": {},
  "deployedLinkReferences": {}
}